:100000000C942A000C9447000C9447000C94470071
:100010000C9447000C9447000C9447000C94470044
:100020000C9447000C9447000C9447000C94470034
:100030000C9447000C9484000C9447000C944700E7
:100040000C9447000C9447000C9447000C94470014
:100050000C94470011241FBECFE5D8E0DEBFCDBF12
:1000600010E0A0E6B0E0E2E2F8E002C005900D92F8
:10007000A43DB107D9F720E0A4EDB0E001C01D9286
:10008000A43DB207E1F70E94AB000C940F040C945E
:1000900000001BBA8FEF88BB81E085BB089587E025
:1000A0008ABB8FEF87BB81E084BB0E944900089523
:1000B00010BC87E689B988E18AB986E880BD0895D1
:1000C0008AB180688AB908955D9BFECF8CB9089586
:1000D000CF93DF93EC0103C00E94640021968881D6
:1000E0008111FACF8DE00E9464008AE00E946400D2
:1000F0002FEF83ED90E3215080409040E1F700C066
:100100000000DF91CF9108951F920F920FB60F92CA
:1001100011242F933F934F935F936F937F938F930C
:100120009F93AF93BF93EF93FF938CB18093600045
:100130000E946400FF91EF91BF91AF919F918F91C9
:100140007F916F915F914F913F912F910F900FBED3
:100150000F901F9018950E944F000E9458000E9417
:10016000600078948DEC90E00E94680080916000BF
:10017000813329F40E941F010E943601F7CF823398
:1001800029F40E947A010E94BB01F0CF833329F445
:100190000E94FF010E943F02E9CF843329F40E94AC
:1001A00082020E94C202E2CF853329F40E94050335
:1001B0000E944603DBCF8633C9F60E948A030E9461
:1001C000CB03D4CF9BB3482F50E021E030E0082E82
:1001D00002C0220F331F0A94E2F7986F292B2BBB22
:1001E00020E030E028C02230310579F4823069F413
:1001F00095B39E7F95BB6FEF71EE94E061507040B8
:100200009040E1F700C0000014C0FA01EE0FFF1F9C
:10021000E40FF51FE659FF4FE20FF31F908198BBE3
:100220006FEF71EE94E0615070409040E1F700C0D4
:1002300000002F5F3F4F23303105ACF20895CF937C
:10024000DF93C0E0D0E00AC08C2F0E94E2008FE96B
:100250009FE00197F1F700C000002196C330D1055F
:100260009CF30E944900DF91CF91089520E030E097
:100270003BC087E08BBB80E090E02BC082309105D3
:1002800099F42230310581F445B34E7F45BB4FEFE1
:1002900051EE64E0415050406040E1F700C0000082
:1002A00045B3416045BB14C0F901EE0FFF1FE20FDB
:1002B000F31FEF59FF4FE80FF91F408148BB4FEF85
:1002C00051EE64E0415050406040E1F700C0000052
:1002D00001968330910594F28FE99FE00197F1F741
:1002E00000C000002F5F3F4F2330310514F20E9401
:1002F0004900089520E030E038C087E08BBB80E003
:1003000090E028C08230910581F42230310569F4F3
:1003100045B34E7F45BB4FEF51EE64E04150504036
:100320006040E1F700C0000014C0F901EE0FFF1FAC
:10033000E20FF31FE458FF4FE80FF91F408148BB5D
:100340004FEF51EE64E0415050406040E1F700C093
:100350000000019683309105ACF28FE99FE0019790
:10036000F1F700C000002F5F3F4F233031052CF222
:100370000E944900089520E030E03BC087E08BBB3D
:1003800080E090E02BC08230910599F42230310555
:1003900081F445B34E7F45BB4FEF51EE64E04150D1
:1003A00050406040E1F700C0000045B3416045BBEC
:1003B00014C0F901EE0FFF1FE20FF31FED58FF4FBE
:1003C000E80FF91F408148BB4FEF51EE64E0415008
:1003D00050406040E1F700C0000001968330910575
:1003E00094F28FE99FE00197F1F700C000002F5FC2
:1003F0003F4F2330310514F20E944900089520E058
:1004000030E037C087E08BBB80E090E027C00097EA
:1004100081F42115310569F445B34E7F45BB4FEF9B
:1004200051EE64E0415050406040E1F700C00000F0
:1004300014C0F901EE0FFF1FE20FF31FE257FF4F49
:10044000E80FF91F408148BB4FEF51EE64E0415087
:1004500050406040E1F700C00000019683309105F4
:10046000B4F28FE99FE00197F1F700C000002F5F21
:100470003F4F2330310534F20E944900089520E0B7
:1004800030E03AC087E08BBB80E090E02AC0009764
:1004900099F42115310581F445B34E7F45BB4FEFEB
:1004A00051EE64E0415050406040E1F700C0000070
:1004B00045B3416045BB14C0F901EE0FFF1FE20FC9
:1004C000F31FEB57FF4FE80FF91F408148BB4FEF79
:1004D00051EE64E0415050406040E1F700C0000040
:1004E0000196833091059CF28FE99FE00197F1F727
:1004F00000C000002F5F3F4F233031051CF20E94E7
:100500004900089520E030E037C087E08BBB80E0F1
:1005100090E027C0009781F42115310569F445B3B7
:100520004E7F45BB4FEF51EE64E04150504060407C
:10053000E1F700C0000014C0F901EE0FFF1FE20F49
:10054000F31FE056FF4FE80FF91F408148BB4FEF04
:1005500051EE64E0415050406040E1F700C00000BF
:10056000019683309105B4F28FE99FE00197F1F78E
:1005700000C000002F5F3F4F2330310534F20E944E
:100580004900089520E030E03AC087E08BBB80E06E
:1005900090E02AC0009799F42115310581F445B304
:1005A0004E7F45BB4FEF51EE64E0415050406040FC
:1005B000E1F700C0000045B3416045BB14C0F9013C
:1005C000EE0FFF1FE20FF31FE956FF4FE80FF91F71
:1005D000408148BB4FEF51EE64E0415050406040D5
:1005E000E1F700C000000196833091059CF28FE98D
:1005F0009FE00197F1F700C000002F5F3F4F2330CD
:1006000031051CF20E944900089520E030E038C016
:1006100087E08BBB80E090E028C08130910581F4B9
:100620002130310569F445B34E7F45BB4FEF51EEA4
:1006300064E0415050406040E1F700C0000014C049
:10064000F901EE0FFF1FE20FF31FEE54FF4FE80F0B
:10065000F91F408148BB4FEF51EE64E041505040DC
:100660006040E1F700C00000019683309105ACF2D4
:100670008FE99FE00197F1F700C000002F5F3F4F27
:10068000233031052CF20E944900089520E030E02B
:100690003BC087E08BBB80E090E02BC081309105B0
:1006A00099F42130310581F445B34E7F45BB4FEFBE
:1006B00051EE64E0415050406040E1F700C000005E
:1006C00045B3416045BB14C0F901EE0FFF1FE20FB7
:1006D000F31FE755FF4FE80FF91F408148BB4FEF6D
:1006E00051EE64E0415050406040E1F700C000002E
:1006F00001968330910594F28FE99FE00197F1F71D
:1007000000C000002F5F3F4F2330310514F20E94DC
:100710004900089520E030E038C087E08BBB80E0DE
:1007200090E028C08130910581F42130310569F4D1
:1007300045B34E7F45BB4FEF51EE64E04150504012
:100740006040E1F700C0000014C0F901EE0FFF1F88
:10075000E20FF31FEC53FF4FE80FF91F408148BB36
:100760004FEF51EE64E0415050406040E1F700C06F
:100770000000019683309105ACF28FE99FE001976C
:10078000F1F700C000002F5F3F4F233031052CF2FE
:100790000E944900089520E030E03BC087E08BBB19
:1007A00080E090E02BC08130910599F42130310533
:1007B00081F445B34E7F45BB4FEF51EE64E04150AD
:1007C00050406040E1F700C0000045B3416045BBC8
:1007D00014C0F901EE0FFF1FE20FF31FE554FF4FA6
:1007E000E80FF91F408148BB4FEF51EE64E04150E4
:1007F00050406040E1F700C0000001968330910551
:1008000094F28FE99FE00197F1F700C000002F5F9D
:100810003F4F2330310514F20E9449000895F894A7
:02082000FFCF08
:1008220031FEFDFBDFEFF7BF7FFFFEFCF8D8C8C04B
:100832008000FFFEF7BF7FEFFDFBDFFFFEF6B6365F
:1008420026242000FFFFDFFBFDEF7FBFF7FEFFDF67
:10085200DBD9C949090100FF7FBFF7EFDFFBFDFECE
:10086200FF7F3F372707030100FEFDFBDFFF7FBF4E
:10087200F7EFFEFCF8D8D858181000EFF7BF7FFF4B
:10088200DFFBFDFEEFE7A7277F070301005374613B
:04089200727400007C
:00000001FF
