:100000000C942A000C943F000C943F000C943F0089
:100010000C943F000C943F000C943F000C943F0064
:100020000C943F000C943F000C943F000C943F0054
:100030000C943F000C943F000C943F000C943F0044
:100040000C943F000C943F000C943F000C943F0034
:100050000C943F0011241FBECFE5D8E0DEBFCDBF1A
:1000600010E0A0E6B0E0E0ECF1E002C005900D92F7
:10007000A237B107D9F70E9450000C94DE000C940F
:1000800000001BBA8FEF88BB81E085BB089587E035
:100090008ABB8FEF87BB81E084BB0E94410008953B
:1000A0000E9447000E9457000E949B00FBCF20E067
:1000B00030E03BC087E08BBB80E090E02BC082301B
:1000C000910599F42230310581F445B34E7F45BB4B
:1000D0004FEF51EE64E0415050406040E1F700C006
:1000E000000045B3416045BB14C0F901EE0FFF1F8E
:1000F000E20FF31FE05AFF4FE80FF91F408148BBA2
:100100004FEF51EE64E0415050406040E1F700C0D5
:10011000000001968330910594F28FE99FE00197EA
:10012000F1F700C000002F5F3F4F2330310514F27C
:100130000E944100089520E030E03AC087E08BBB88
:1001400080E090E02AC0009799F42115310581F4F0
:1001500045B34E7F45BB4FEF51EE64E041505040F8
:100160006040E1F700C0000045B3416045BB14C0EA
:10017000F901EE0FFF1FE20FF31FE759FF4FE80FE2
:10018000F91F408148BB4FEF51EE64E041505040B1
:100190006040E1F700C000000196833091059CF2B9
:1001A0008FE99FE00197F1F700C000002F5F3F4FFC
:1001B000233031051CF20E9441000895F894FFCFCE
:1001C000FEFDFBDFEFF7BF7FFFFFDFFBFDEF7FBF34
:0201D000F7FE38
:00000001FF
