:100000000C942A000C943F000C943F000C943F0089
:100010000C943F000C943F000C943F000C943F0064
:100020000C943F000C943F000C943F000C943F0054
:100030000C943F000C943F000C943F000C943F0044
:100040000C943F000C943F000C943F000C943F0034
:100050000C943F0011241FBECFE5D8E0DEBFCDBF1A
:1000600010E0A0E6B0E0E6E3F1E002C005900D92FA
:10007000AA36B107D9F70E9494000C9499000C9409
:1000800000001BBA8FEF88BB81E085BB089587E035
:100090008ABB8FEF87BB81E084BB0E94410008953B
:1000A00020E030E03BC087E08BBB80E090E02BC0DD
:1000B0008230910599F42230310581F445B34E7FA9
:1000C00045BB4FEF51EE64E0415050406040E1F7D6
:1000D00000C0000045B3416045BB14C0F901EE0FFC
:1000E000FF1FE20FF31FE05AFF4FE80FF91F408197
:1000F00048BB4FEF51EE64E0415050406040E1F7A3
:1001000000C0000001968330910594F28FE99FE0D2
:100110000197F1F700C000002F5F3F4F23303105FA
:1001200014F20E94410008950E9447000E9450006E
:06013000FDCFF894FFCFA3
:0A013600FEF7BF7FEFFDFBDFFF00C7
:00000001FF
