:100000000C942A000C9447000C9447000C94470071
:100010000C9447000C9447000C9447000C94470044
:100020000C9447000C9447000C9447000C94470034
:100030000C9447000C9468000C9447000C94470003
:100040000C9447000C9447000C9447000C94470014
:100050000C94470011241FBECFE5D8E0DEBFCDBF12
:1000600010E0A0E6B0E0E4E7F3E002C005900D92F6
:10007000A638B107D9F720E0A6E8B0E001C01D928C
:10008000A638B207E1F70E948F000C94B8010C94D7
:1000900000001BBA8FEF88BB81E085BB089587E025
:1000A0008ABB8FEF87BB81E084BB0E944900089523
:1000B00010BC87E689B988E18AB986E880BD0895D1
:1000C0008AB180688AB908955D9BFECF8CB9089586
:1000D0001F920F920FB60F9211242F933F934F93BD
:1000E0005F936F937F938F939F93AF93BF93EF93A0
:1000F000FF938CB1809360000E946400FF91EF91A8
:10010000BF91AF919F918F917F916F915F914F912F
:100110003F912F910F900FBE0F901F9018950E9446
:100120004F000E9458000E94600078948091600007
:10013000813319F40E94AA00F9CF823319F40E9486
:10014000EE00F4CF833319F40E943201EFCF0E9406
:100150007501ECCF20E030E03BC087E08BBB80E056
:1001600090E02BC08230910599F42230310581F462
:1001700045B34E7F45BB4FEF51EE64E041505040D8
:100180006040E1F700C0000045B3416045BB14C0CA
:10019000F901EE0FFF1FE20FF31FEF59FF4FE80FBA
:1001A000F91F408148BB4FEF51EE64E04150504091
:1001B0006040E1F700C0000001968330910594F2A1
:1001C0008FE99FE00197F1F700C000002F5F3F4FDC
:1001D0002330310514F20E944900089520E030E0F8
:1001E0003BC087E08BBB80E090E02BC08230910564
:1001F00099F42230310581F445B34E7F45BB4FEF72
:1002000051EE64E0415050406040E1F700C0000012
:1002100045B3416045BB14C0F901EE0FFF1FE20F6B
:10022000F31FE659FF4FE80FF91F408148BB4FEF1E
:1002300051EE64E0415050406040E1F700C00000E2
:1002400001968330910594F28FE99FE00197F1F7D1
:1002500000C000002F5F3F4F2330310514F20E9491
:100260004900089520E030E03AC087E08BBB80E091
:1002700090E02AC0009799F42115310581F445B327
:100280004E7F45BB4FEF51EE64E04150504060401F
:10029000E1F700C0000045B3416045BB14C0F9015F
:1002A000EE0FFF1FE20FF31FED58FF4FE80FF91F8E
:1002B000408148BB4FEF51EE64E0415050406040F8
:1002C000E1F700C000000196833091059CF28FE9B0
:1002D0009FE00197F1F700C000002F5F3F4F2330F0
:1002E00031051CF20E944900089520E030E03AC038
:1002F00087E08BBB80E090E02AC0009799F421153D
:10030000310581F445B34E7F45BB4FEF51EE64E0BC
:10031000415050406040E1F700C0000045B34160EB
:1003200045BB14C0F901EE0FFF1FE20FF31FE458A5
:10033000FF4FE80FF91F408148BB4FEF51EE64E0DB
:10034000415050406040E1F700C00000019683300A
:1003500091059CF28FE99FE00197F1F700C0000042
:100360002F5F3F4F233031051CF20E944900089552
:04037000F894FFCF2F
:1003740031FEFDFBDFEFF7BF7FFFFEF7BF7FEFFD31
:10038400FBDFFFFFDFFBFDEF7FBFF7FEFF7FBFF764
:06039400EFDFFBFDFE009F
:00000001FF
