S01600004C45442D637562652D61746D656C2E737265632D
S11300000C942A000C943F000C943F000C943F0085
S11300100C943F000C943F000C943F000C943F0060
S11300200C943F000C943F000C943F000C943F0050
S11300300C943F000C943F000C943F000C943F0040
S11300400C943F000C943F000C943F000C943F0030
S11300500C943F0011241FBECFE5D8E0DEBFCDBF16
S113006010E0A0E6B0E0E0E7F2E002C005900D92F7
S1130070AC37B107D9F70E942D010C9436010C94CA
S113008000001BBA8FEF88BB81E085BB089587E031
S11300908ABB8FEF87BB81E084BB0E944100089537
S11300A020E030E03BC087E08BBB80E090E02BC0D9
S11300B08230910599F42230310581F445B34E7FA5
S11300C045BB4FEF53EC69E0415050406040E1F7CD
S11300D000C0000045B3416045BB14C0F901EE0FF8
S11300E0FF1FE20FF31FEE58FF4FE80FF91F408187
S11300F048BB4FEF53EC69E0415050406040E1F79A
S113010000C0000001968330910594F28FE99FE0CE
S11301100197F1F700C000002F5F3F4F23303105F6
S113012014F20E94410008959BB3482F50E021E04F
S113013030E0082E02C0220F331F0A94E2F7986FB2
S1130140292B2BBB97E09BBB20E030E028C022305A
S1130150310579F4823069F495B39E7F95BB6FEFD6
S113016073EC99E0615070409040E1F700C00000EA
S113017014C0FA01EE0FFF1FE40FF51FE759FF4FFC
S1130180E20FF31F908198BB6FEF73EC99E061501D
S113019070409040E1F700C000002F5F3F4F2330D4
S11301A03105ACF20895CF93DF93C0E0D0E00AC0EC
S11301B08C2F0E9494008FE99FE00197F1F700C013
S11301C000002196C330D1059CF30E944100DF91C9
S11301D0CF91089520E030E03AC087E08BBB80E007
S11301E090E02AC0009799F42115310581F445B3B4
S11301F04E7F45BB4FEF53EC69E0415050406040A7
S1130200E1F700C0000045B3416045BB14C0F901EB
S1130210EE0FFF1FE20FF31FE05AFF4FE80FF91F25
S1130220408148BB4FEF53EC69E04150504060407F
S1130230E1F700C000000196833091059CF28FE93C
S11302409FE00197F1F700C000002F5F3F4F23307C
S113025031051CF20E94410008950E9447000E944B
S113026050000E94EA000E94D300F9CFF894FFCF17
S1130270FFDFFBFDEF7FBFF7FEFEF6B63626242038
S10F028000FFFEFDFBDFEFF7BF7FFF0077
S9030000FC
