S01600004C45442D637562652D61746D656C2E737265632D
S11300000C942A000C943F000C943F000C943F0085
S11300100C943F000C943F000C943F000C943F0060
S11300200C943F000C943F000C943F000C943F0050
S11300300C943F000C943F000C943F000C943F0040
S11300400C943F000C943F000C943F000C943F0030
S11300500C943F0011241FBECFE5D8E0DEBFCDBF16
S113006010E0A0E6B0E0E8E4F1E002C005900D92F3
S1130070AA36B107D9F70E948D000C94A2000C9403
S113008000001BBA8FEF88BB81E085BB089587E031
S11300908ABB8FEF87BB81E084BB0E944100089537
S11300A09BB3482F50E021E030E0082E02C0220F1D
S11300B0331F0A94E2F7987F292B2BBB20E030E012
S11300C028C02230310579F4823069F495B39E7FDB
S11300D095BB6FEF71EE94E0615070409040E1F792
S11300E000C0000014C0FA01EE0FFF1FE40FF51F5B
S11300F0E05AFF4FE20FF31F908198BB6FEF71EE50
S113010094E0615070409040E1F700C000002F5F20
S11301103F4F23303105ACF208950E944700C0E000
S1130120D0E00AC08C2F0E9450008FE99FE0019715
S1130130F1F700C000002196C330D1059CF30E9462
S10B01404100EDCFF894FFCF5C
S10D0148FEFCF8F0E0C08000FF00A8
S9030000FC
